{
  "contractName": "OrderManagment",
  "abi": [
    {
      "inputs": [
        {
          "internalType": "address",
          "name": "scAddrs",
          "type": "address"
        }
      ],
      "payable": false,
      "stateMutability": "nonpayable",
      "type": "constructor"
    },
    {
      "anonymous": false,
      "inputs": [
        {
          "indexed": true,
          "internalType": "bytes32",
          "name": "itemIndex",
          "type": "bytes32"
        },
        {
          "indexed": true,
          "internalType": "address",
          "name": "account",
          "type": "address"
        }
      ],
      "name": "ChangeInPartOwner",
      "type": "event"
    },
    {
      "anonymous": false,
      "inputs": [
        {
          "indexed": true,
          "internalType": "bytes32",
          "name": "itemIndex",
          "type": "bytes32"
        },
        {
          "indexed": true,
          "internalType": "address",
          "name": "account",
          "type": "address"
        }
      ],
      "name": "changeInProductOwner",
      "type": "event"
    },
    {
      "constant": true,
      "inputs": [
        {
          "internalType": "bytes32",
          "name": "",
          "type": "bytes32"
        }
      ],
      "name": "prdsInventory",
      "outputs": [
        {
          "internalType": "address",
          "name": "",
          "type": "address"
        }
      ],
      "payable": false,
      "stateMutability": "view",
      "type": "function"
    },
    {
      "constant": true,
      "inputs": [
        {
          "internalType": "bytes32",
          "name": "",
          "type": "bytes32"
        }
      ],
      "name": "sparePartsInventory",
      "outputs": [
        {
          "internalType": "address",
          "name": "",
          "type": "address"
        }
      ],
      "payable": false,
      "stateMutability": "view",
      "type": "function"
    },
    {
      "constant": false,
      "inputs": [
        {
          "internalType": "bytes32",
          "name": "itemHash",
          "type": "bytes32"
        }
      ],
      "name": "addSpareToInventory",
      "outputs": [
        {
          "internalType": "address",
          "name": "",
          "type": "address"
        }
      ],
      "payable": false,
      "stateMutability": "nonpayable",
      "type": "function"
    },
    {
      "constant": false,
      "inputs": [
        {
          "internalType": "bytes32",
          "name": "itemHash",
          "type": "bytes32"
        },
        {
          "internalType": "address",
          "name": "to",
          "type": "address"
        }
      ],
      "name": "tranferSparePartRights",
      "outputs": [],
      "payable": false,
      "stateMutability": "nonpayable",
      "type": "function"
    },
    {
      "constant": false,
      "inputs": [
        {
          "internalType": "bytes32",
          "name": "itemHash",
          "type": "bytes32"
        }
      ],
      "name": "addProductToInventory",
      "outputs": [],
      "payable": false,
      "stateMutability": "nonpayable",
      "type": "function"
    },
    {
      "constant": false,
      "inputs": [
        {
          "internalType": "bytes32",
          "name": "itemHash",
          "type": "bytes32"
        },
        {
          "internalType": "address",
          "name": "to",
          "type": "address"
        }
      ],
      "name": "tranferPrdRights",
      "outputs": [],
      "payable": false,
      "stateMutability": "nonpayable",
      "type": "function"
    }
  ],
  "bytecode": "0x608060405234801561001057600080fd5b506040516113ee3803806113ee8339818101604052602081101561003357600080fd5b810190808051906020019092919050505080600260006101000a81548173ffffffffffffffffffffffffffffffffffffffff021916908373ffffffffffffffffffffffffffffffffffffffff16021790555050611359806100956000396000f3fe608060405234801561001057600080fd5b50600436106100625760003560e01c80630588771c14610067578063662bcc58146100d5578063a132602814610103578063cc16076e14610171578063f09cd6f6146101bf578063f2b63b741461022d575b600080fd5b6100936004803603602081101561007d57600080fd5b810190808035906020019092919050505061027b565b604051808273ffffffffffffffffffffffffffffffffffffffff1673ffffffffffffffffffffffffffffffffffffffff16815260200191505060405180910390f35b610101600480360360208110156100eb57600080fd5b81019080803590602001909291905050506107d1565b005b61012f6004803603602081101561011957600080fd5b8101908080359060200190929190505050610d40565b604051808273ffffffffffffffffffffffffffffffffffffffff1673ffffffffffffffffffffffffffffffffffffffff16815260200191505060405180910390f35b6101bd6004803603604081101561018757600080fd5b8101908080359060200190929190803573ffffffffffffffffffffffffffffffffffffffff169060200190929190505050610d73565b005b6101eb600480360360208110156101d557600080fd5b8101908080359060200190929190505050610ec2565b604051808273ffffffffffffffffffffffffffffffffffffffff1673ffffffffffffffffffffffffffffffffffffffff16815260200191505060405180910390f35b6102796004803603604081101561024357600080fd5b8101908080359060200190929190803573ffffffffffffffffffffffffffffffffffffffff169060200190929190505050610ef5565b005b600080600260009054906101000a900473ffffffffffffffffffffffffffffffffffffffff1673ffffffffffffffffffffffffffffffffffffffff16633d729a88846040518263ffffffff1660e01b81526004018082815260200191505060006040518083038186803b1580156102f157600080fd5b505afa158015610305573d6000803e3d6000fd5b505050506040513d6000823e3d601f19601f82011682018060405250608081101561032f57600080fd5b810190808051604051939291908464010000000082111561034f57600080fd5b8382019150602082018581111561036557600080fd5b825186600182028301116401000000008211171561038257600080fd5b8083526020830192505050908051906020019080838360005b838110156103b657808201518184015260208101905061039b565b50505050905090810190601f1680156103e35780820380516001836020036101000a031916815260200191505b506040526020018051604051939291908464010000000082111561040657600080fd5b8382019150602082018581111561041c57600080fd5b825186600182028301116401000000008211171561043957600080fd5b8083526020830192505050908051906020019080838360005b8381101561046d578082015181840152602081019050610452565b50505050905090810190601f16801561049a5780820380516001836020036101000a031916815260200191505b50604052602001805160405193929190846401000000008211156104bd57600080fd5b838201915060208201858111156104d357600080fd5b82518660018202830111640100000000821117156104f057600080fd5b8083526020830192505050908051906020019080838360005b83811015610524578082015181840152602081019050610509565b50505050905090810190601f1680156105515780820380516001836020036101000a031916815260200191505b506040526020018051906020019092919050505090919250909150905080915050600073ffffffffffffffffffffffffffffffffffffffff168173ffffffffffffffffffffffffffffffffffffffff1614156105f8576040517f08c379a00000000000000000000000000000000000000000000000000000000081526004018080602001828103825260278152602001806112d56027913960400191505060405180910390fd5b600073ffffffffffffffffffffffffffffffffffffffff1660008085815260200190815260200160002060009054906101000a900473ffffffffffffffffffffffffffffffffffffffff1673ffffffffffffffffffffffffffffffffffffffff16146106af576040517f08c379a00000000000000000000000000000000000000000000000000000000081526004018080602001828103825260298152602001806112fc6029913960400191505060405180910390fd5b3373ffffffffffffffffffffffffffffffffffffffff168173ffffffffffffffffffffffffffffffffffffffff1614610733576040517f08c379a00000000000000000000000000000000000000000000000000000000081526004018080602001828103825260258152602001806112b06025913960400191505060405180910390fd5b3360008085815260200190815260200160002060006101000a81548173ffffffffffffffffffffffffffffffffffffffff021916908373ffffffffffffffffffffffffffffffffffffffff1602179055503373ffffffffffffffffffffffffffffffffffffffff16837f35554ad8ad177c76f5adf65b7cfe43a23f050ed6f56d79d44d04538583e08f6560405160405180910390a380915050919050565b6000600260009054906101000a900473ffffffffffffffffffffffffffffffffffffffff1673ffffffffffffffffffffffffffffffffffffffff166379054391836040518263ffffffff1660e01b81526004018082815260200191505060006040518083038186803b15801561084657600080fd5b505afa15801561085a573d6000803e3d6000fd5b505050506040513d6000823e3d601f19601f82011682018060405250608081101561088457600080fd5b81019080805160405193929190846401000000008211156108a457600080fd5b838201915060208201858111156108ba57600080fd5b82518660018202830111640100000000821117156108d757600080fd5b8083526020830192505050908051906020019080838360005b8381101561090b5780820151818401526020810190506108f0565b50505050905090810190601f1680156109385780820380516001836020036101000a031916815260200191505b506040526020018051604051939291908464010000000082111561095b57600080fd5b8382019150602082018581111561097157600080fd5b825186600182028301116401000000008211171561098e57600080fd5b8083526020830192505050908051906020019080838360005b838110156109c25780820151818401526020810190506109a7565b50505050905090810190601f1680156109ef5780820380516001836020036101000a031916815260200191505b5060405260200180516040519392919084640100000000821115610a1257600080fd5b83820191506020820185811115610a2857600080fd5b8251866001820283011164010000000082111715610a4557600080fd5b8083526020830192505050908051906020019080838360005b83811015610a79578082015181840152602081019050610a5e565b50505050905090810190601f168015610aa65780820380516001836020036101000a031916815260200191505b506040526020018051906020019092919050505090919250909150905080915050600073ffffffffffffffffffffffffffffffffffffffff168173ffffffffffffffffffffffffffffffffffffffff161415610b4d576040517f08c379a00000000000000000000000000000000000000000000000000000000081526004018080602001828103825260278152602001806112d56027913960400191505060405180910390fd5b600073ffffffffffffffffffffffffffffffffffffffff166001600084815260200190815260200160002060009054906101000a900473ffffffffffffffffffffffffffffffffffffffff1673ffffffffffffffffffffffffffffffffffffffff1614610c22576040517f08c379a000000000000000000000000000000000000000000000000000000000815260040180806020018281038252601e8152602001807f50726f647563742077617320616c72656164792072656769737465726564000081525060200191505060405180910390fd5b3373ffffffffffffffffffffffffffffffffffffffff168173ffffffffffffffffffffffffffffffffffffffff1614610ca6576040517f08c379a00000000000000000000000000000000000000000000000000000000081526004018080602001828103825260258152602001806112b06025913960400191505060405180910390fd5b336001600084815260200190815260200160002060006101000a81548173ffffffffffffffffffffffffffffffffffffffff021916908373ffffffffffffffffffffffffffffffffffffffff1602179055503373ffffffffffffffffffffffffffffffffffffffff16827f8f49f825d099f2ee41e7602b525b8d2bbcc02d3d7b76b585960b28ae2547938b60405160405180910390a35050565b60006020528060005260406000206000915054906101000a900473ffffffffffffffffffffffffffffffffffffffff1681565b3373ffffffffffffffffffffffffffffffffffffffff1660008084815260200190815260200160002060009054906101000a900473ffffffffffffffffffffffffffffffffffffffff1673ffffffffffffffffffffffffffffffffffffffff1614610e29576040517f08c379a00000000000000000000000000000000000000000000000000000000081526004018080602001828103825260278152602001806112896027913960400191505060405180910390fd5b8060008084815260200190815260200160002060006101000a81548173ffffffffffffffffffffffffffffffffffffffff021916908373ffffffffffffffffffffffffffffffffffffffff1602179055508073ffffffffffffffffffffffffffffffffffffffff16827f35554ad8ad177c76f5adf65b7cfe43a23f050ed6f56d79d44d04538583e08f6560405160405180910390a35050565b60016020528060005260406000206000915054906101000a900473ffffffffffffffffffffffffffffffffffffffff1681565b3373ffffffffffffffffffffffffffffffffffffffff166001600084815260200190815260200160002060009054906101000a900473ffffffffffffffffffffffffffffffffffffffff1673ffffffffffffffffffffffffffffffffffffffff1614610fc9576040517f08c379a00000000000000000000000000000000000000000000000000000000081526004018080602001828103825260208152602001807f50726f64756374206973206e6f7420776974682074686973206163636f756e7481525060200191505060405180910390fd5b806001600084815260200190815260200160002060006101000a81548173ffffffffffffffffffffffffffffffffffffffff021916908373ffffffffffffffffffffffffffffffffffffffff1602179055508073ffffffffffffffffffffffffffffffffffffffff16827f8f49f825d099f2ee41e7602b525b8d2bbcc02d3d7b76b585960b28ae2547938b60405160405180910390a36060600260009054906101000a900473ffffffffffffffffffffffffffffffffffffffff1673ffffffffffffffffffffffffffffffffffffffff16636e730329846040518263ffffffff1660e01b81526004018082815260200191505060006040518083038186803b1580156110d457600080fd5b505afa1580156110e8573d6000803e3d6000fd5b505050506040513d6000823e3d601f19601f82011682018060405250602081101561111257600080fd5b810190808051604051939291908464010000000082111561113257600080fd5b8382019150602082018581111561114857600080fd5b825186602082028301116401000000008211171561116557600080fd5b8083526020830192505050908051906020019060200280838360005b8381101561119c578082015181840152602081019050611181565b50505050905001604052505050905060008090505b815181101561128257826000808484815181106111ca57fe5b6020026020010151815260200190815260200160002060006101000a81548173ffffffffffffffffffffffffffffffffffffffff021916908373ffffffffffffffffffffffffffffffffffffffff1602179055508273ffffffffffffffffffffffffffffffffffffffff1682828151811061124157fe5b60200260200101517f35554ad8ad177c76f5adf65b7cfe43a23f050ed6f56d79d44d04538583e08f6560405160405180910390a380806001019150506111b1565b5050505056fe496c6c6567616c204f7065726174696f6e212055736572206973206e6f74207065726d6974656453706172652050617274206973206e6f7420637265617465642062792074686520757365725370617265206e6f7420666f756e6420746f2061646420746f2074686520696e76656e746f727953706172652070617274206973207265676973746572656420696e2074686520696e76656e746f7279a265627a7a72315820363c8744e03417589ee64489a9337d5a6725e8e907a76fe11b22f27de291778564736f6c63430005100032",
  "source": "pragma solidity 0.5.16;\nimport './SupplyChainManagment.sol';\n\ncontract OrderManagment {\n\n    mapping(bytes32 => address) public sparePartsInventory;\n    mapping(bytes32 => address)  public prdsInventory;\n\n    event ChangeInPartOwner(bytes32 indexed itemIndex, address indexed account);\n    event changeInProductOwner(bytes32 indexed itemIndex, address indexed account);\n\n    SupplyChainManagment private sc;\n    constructor(address scAddrs) public {\n        sc = SupplyChainManagment(scAddrs);\n    }\n\n    //this is like adding the item to the inventory \n    //only the itemHash <--> owner address is mapped\n    //the no. of items is not managed\n    //like regular inventory idea\n    //push the event to transitionlogs\n    //Dapp can access the logs to show the history\n    function addSpareToInventory(bytes32 itemHash) public returns(address){\n        address manufacturer;\n        ( , , , manufacturer) = sc.spareParts(itemHash);\n        require(manufacturer != address(0), \"Spare not found to add to the inventory\");\n        require(sparePartsInventory[itemHash] == address(0), \"Spare part is registered in the inventory\");\n        require(manufacturer == msg.sender, \"Spare Part is not created by the user\");\n        sparePartsInventory[itemHash] = msg.sender;\n        emit ChangeInPartOwner(itemHash, msg.sender);\n        return manufacturer;\n    }\n\n    //will transfer the rights of the spare to the given to address\n    function tranferSparePartRights(bytes32 itemHash, address to) public {\n        require(sparePartsInventory[itemHash] == msg.sender, \"Illegal Operation! User is not permited\"); //only item owner can do the sale\n        sparePartsInventory[itemHash] = to;\n        emit ChangeInPartOwner(itemHash, to);\n    }\n\n\n\n    //this is like doing sale (Secondary / PO / PR)\n    //only the itemHash <--> owner address in the map is changed\n    //push the event to transitionlogs\n    //Dapp can access the logs to show the history\n    function addProductToInventory(bytes32 itemHash) public {\n        address manufacturer;\n        ( , , , manufacturer) = sc.products(itemHash);\n        require(manufacturer != address(0), \"Spare not found to add to the inventory\"); //item should be created\n        require(prdsInventory[itemHash] == address(0), \"Product was already registered\");\n        require(manufacturer == msg.sender, \"Spare Part is not created by the user\"); //item can be put into inventory only by its owner\n        prdsInventory[itemHash] = msg.sender;\n        emit changeInProductOwner(itemHash, msg.sender);\n    }\n\n\n    function tranferPrdRights(bytes32 itemHash, address to) public {\n        require(prdsInventory[itemHash] == msg.sender, \"Product is not with this account\");\n        prdsInventory[itemHash] = to;\n        emit changeInProductOwner(itemHash, to);\n        bytes32[] memory spare_parts = sc.getParts(itemHash);\n        for(uint i = 0; i < spare_parts.length; i++){\n            sparePartsInventory[spare_parts[i]] = to;\n            emit ChangeInPartOwner(spare_parts[i], to);\n        }\n    }\n\n\n\n}",
  "sourcePath": "/home/rajesh/Rajesh/eth_Pj/snoc_v2/contracts/OrderManagment.sol",
  "compiler": {
    "name": "solc",
    "version": "0.5.16+commit.9c3226ce.Emscripten.clang"
  },
  "schemaVersion": "3.0.23",
  "updatedAt": "2020-05-31T09:18:15.706Z",
  "networkType": "ethereum",
  "devdoc": {
    "methods": {}
  },
  "userdoc": {
    "methods": {}
  }
}