{
  "contractName": "SupplyChainManagment",
  "abi": [
    {
      "inputs": [],
      "payable": false,
      "stateMutability": "nonpayable",
      "type": "constructor"
    },
    {
      "constant": true,
      "inputs": [
        {
          "internalType": "bytes32",
          "name": "",
          "type": "bytes32"
        }
      ],
      "name": "products",
      "outputs": [
        {
          "internalType": "string",
          "name": "prdName",
          "type": "string"
        },
        {
          "internalType": "string",
          "name": "prdType",
          "type": "string"
        },
        {
          "internalType": "string",
          "name": "uniqueNumber",
          "type": "string"
        },
        {
          "internalType": "address",
          "name": "manufacturer",
          "type": "address"
        }
      ],
      "payable": false,
      "stateMutability": "view",
      "type": "function"
    },
    {
      "constant": true,
      "inputs": [
        {
          "internalType": "bytes32",
          "name": "",
          "type": "bytes32"
        }
      ],
      "name": "spareParts",
      "outputs": [
        {
          "internalType": "string",
          "name": "partName",
          "type": "string"
        },
        {
          "internalType": "string",
          "name": "partType",
          "type": "string"
        },
        {
          "internalType": "string",
          "name": "uniqueNumber",
          "type": "string"
        },
        {
          "internalType": "address",
          "name": "manufacturer",
          "type": "address"
        }
      ],
      "payable": false,
      "stateMutability": "view",
      "type": "function"
    },
    {
      "constant": false,
      "inputs": [
        {
          "internalType": "string",
          "name": "partName",
          "type": "string"
        },
        {
          "internalType": "string",
          "name": "partType",
          "type": "string"
        },
        {
          "internalType": "string",
          "name": "uniqueNumber",
          "type": "string"
        }
      ],
      "name": "createSpare",
      "outputs": [
        {
          "internalType": "bytes32",
          "name": "",
          "type": "bytes32"
        }
      ],
      "payable": false,
      "stateMutability": "nonpayable",
      "type": "function"
    },
    {
      "constant": false,
      "inputs": [
        {
          "internalType": "string",
          "name": "partName",
          "type": "string"
        },
        {
          "internalType": "string",
          "name": "partType",
          "type": "string"
        },
        {
          "internalType": "string",
          "name": "uniqueNumber",
          "type": "string"
        },
        {
          "internalType": "bytes32[]",
          "name": "spare_parts",
          "type": "bytes32[]"
        }
      ],
      "name": "createProduct",
      "outputs": [
        {
          "internalType": "bytes32",
          "name": "",
          "type": "bytes32"
        }
      ],
      "payable": false,
      "stateMutability": "nonpayable",
      "type": "function"
    },
    {
      "constant": true,
      "inputs": [
        {
          "internalType": "bytes32",
          "name": "product_hash",
          "type": "bytes32"
        }
      ],
      "name": "getParts",
      "outputs": [
        {
          "internalType": "bytes32[]",
          "name": "",
          "type": "bytes32[]"
        }
      ],
      "payable": false,
      "stateMutability": "view",
      "type": "function"
    }
  ],
  "bytecode": "0x608060405234801561001057600080fd5b50611635806100206000396000f3fe608060405234801561001057600080fd5b50600436106100575760003560e01c80633d729a881461005c5780636e7303291461020e5780637905439114610291578063aff7ab9014610443578063ce3158bd14610640575b600080fd5b6100886004803603602081101561007257600080fd5b81019080803590602001909291905050506108d1565b604051808060200180602001806020018573ffffffffffffffffffffffffffffffffffffffff1673ffffffffffffffffffffffffffffffffffffffff168152602001848103845288818151815260200191508051906020019080838360005b838110156101025780820151818401526020810190506100e7565b50505050905090810190601f16801561012f5780820380516001836020036101000a031916815260200191505b50848103835287818151815260200191508051906020019080838360005b8381101561016857808201518184015260208101905061014d565b50505050905090810190601f1680156101955780820380516001836020036101000a031916815260200191505b50848103825286818151815260200191508051906020019080838360005b838110156101ce5780820151818401526020810190506101b3565b50505050905090810190601f1680156101fb5780820380516001836020036101000a031916815260200191505b5097505050505050505060405180910390f35b61023a6004803603602081101561022457600080fd5b8101908080359060200190929190505050610ae9565b6040518080602001828103825283818151815260200191508051906020019060200280838360005b8381101561027d578082015181840152602081019050610262565b505050509050019250505060405180910390f35b6102bd600480360360208110156102a757600080fd5b8101908080359060200190929190505050610c30565b604051808060200180602001806020018573ffffffffffffffffffffffffffffffffffffffff1673ffffffffffffffffffffffffffffffffffffffff168152602001848103845288818151815260200191508051906020019080838360005b8381101561033757808201518184015260208101905061031c565b50505050905090810190601f1680156103645780820380516001836020036101000a031916815260200191505b50848103835287818151815260200191508051906020019080838360005b8381101561039d578082015181840152602081019050610382565b50505050905090810190601f1680156103ca5780820380516001836020036101000a031916815260200191505b50848103825286818151815260200191508051906020019080838360005b838110156104035780820151818401526020810190506103e8565b50505050905090810190601f1680156104305780820380516001836020036101000a031916815260200191505b5097505050505050505060405180910390f35b61062a6004803603606081101561045957600080fd5b810190808035906020019064010000000081111561047657600080fd5b82018360208201111561048857600080fd5b803590602001918460018302840111640100000000831117156104aa57600080fd5b91908080601f016020809104026020016040519081016040528093929190818152602001838380828437600081840152601f19601f8201169050808301925050505050505091929192908035906020019064010000000081111561050d57600080fd5b82018360208201111561051f57600080fd5b8035906020019184600183028401116401000000008311171561054157600080fd5b91908080601f016020809104026020016040519081016040528093929190818152602001838380828437600081840152601f19601f820116905080830192505050505050509192919290803590602001906401000000008111156105a457600080fd5b8201836020820111156105b657600080fd5b803590602001918460018302840111640100000000831117156105d857600080fd5b91908080601f016020809104026020016040519081016040528093929190818152602001838380828437600081840152601f19601f820116905080830192505050505050509192919290505050610e48565b6040518082815260200191505060405180910390f35b6108bb6004803603608081101561065657600080fd5b810190808035906020019064010000000081111561067357600080fd5b82018360208201111561068557600080fd5b803590602001918460018302840111640100000000831117156106a757600080fd5b91908080601f016020809104026020016040519081016040528093929190818152602001838380828437600081840152601f19601f8201169050808301925050505050505091929192908035906020019064010000000081111561070a57600080fd5b82018360208201111561071c57600080fd5b8035906020019184600183028401116401000000008311171561073e57600080fd5b91908080601f016020809104026020016040519081016040528093929190818152602001838380828437600081840152601f19601f820116905080830192505050505050509192919290803590602001906401000000008111156107a157600080fd5b8201836020820111156107b357600080fd5b803590602001918460018302840111640100000000831117156107d557600080fd5b91908080601f016020809104026020016040519081016040528093929190818152602001838380828437600081840152601f19601f8201169050808301925050505050505091929192908035906020019064010000000081111561083857600080fd5b82018360208201111561084a57600080fd5b8035906020019184602083028401116401000000008311171561086c57600080fd5b919080806020026020016040519081016040528093929190818152602001838360200280828437600081840152601f19601f820116905080830192505050505050509192919290505050610fed565b6040518082815260200191505060405180910390f35b6000602052806000526040600020600091509050806000018054600181600116156101000203166002900480601f01602080910402602001604051908101604052809291908181526020018280546001816001161561010002031660029004801561097d5780601f106109525761010080835404028352916020019161097d565b820191906000526020600020905b81548152906001019060200180831161096057829003601f168201915b505050505090806001018054600181600116156101000203166002900480601f016020809104026020016040519081016040528092919081815260200182805460018160011615610100020316600290048015610a1b5780601f106109f057610100808354040283529160200191610a1b565b820191906000526020600020905b8154815290600101906020018083116109fe57829003601f168201915b505050505090806002018054600181600116156101000203166002900480601f016020809104026020016040519081016040528092919081815260200182805460018160011615610100020316600290048015610ab95780601f10610a8e57610100808354040283529160200191610ab9565b820191906000526020600020905b815481529060010190602001808311610a9c57829003601f168201915b5050505050908060030160009054906101000a900473ffffffffffffffffffffffffffffffffffffffff16905084565b6060600073ffffffffffffffffffffffffffffffffffffffff166001600084815260200190815260200160002060030160009054906101000a900473ffffffffffffffffffffffffffffffffffffffff1673ffffffffffffffffffffffffffffffffffffffff161415610bc4576040517f08c379a00000000000000000000000000000000000000000000000000000000081526004018080602001828103825260128152602001807f50726f6475637420696e6578697374656e74000000000000000000000000000081525060200191505060405180910390fd5b60016000838152602001908152602001600020600401805480602002602001604051908101604052809291908181526020018280548015610c2457602002820191906000526020600020905b815481526020019060010190808311610c10575b50505050509050919050565b6001602052806000526040600020600091509050806000018054600181600116156101000203166002900480601f016020809104026020016040519081016040528092919081815260200182805460018160011615610100020316600290048015610cdc5780601f10610cb157610100808354040283529160200191610cdc565b820191906000526020600020905b815481529060010190602001808311610cbf57829003601f168201915b505050505090806001018054600181600116156101000203166002900480601f016020809104026020016040519081016040528092919081815260200182805460018160011615610100020316600290048015610d7a5780601f10610d4f57610100808354040283529160200191610d7a565b820191906000526020600020905b815481529060010190602001808311610d5d57829003601f168201915b505050505090806002018054600181600116156101000203166002900480601f016020809104026020016040519081016040528092919081815260200182805460018160011615610100020316600290048015610e185780601f10610ded57610100808354040283529160200191610e18565b820191906000526020600020905b815481529060010190602001808311610dfb57829003601f168201915b5050505050908060030160009054906101000a900473ffffffffffffffffffffffffffffffffffffffff16905084565b6000803390506000610e5a84836112de565b9050600073ffffffffffffffffffffffffffffffffffffffff1660008083815260200190815260200160002060030160009054906101000a900473ffffffffffffffffffffffffffffffffffffffff1673ffffffffffffffffffffffffffffffffffffffff1614610f16576040517f08c379a000000000000000000000000000000000000000000000000000000000815260040180806020018281038252603f8152602001806115c2603f913960400191505060405180910390fd5b610f1e611427565b610f2a8787878661138e565b9050806000808481526020019081526020016000206000820151816000019080519060200190610f5b929190611465565b506020820151816001019080519060200190610f78929190611465565b506040820151816002019080519060200190610f95929190611465565b5060608201518160030160006101000a81548173ffffffffffffffffffffffffffffffffffffffff021916908373ffffffffffffffffffffffffffffffffffffffff1602179055509050508193505050509392505050565b60008033905060008084519050600091505b808210156110ff57600073ffffffffffffffffffffffffffffffffffffffff1660008087858151811061102e57fe5b6020026020010151815260200190815260200160002060030160009054906101000a900473ffffffffffffffffffffffffffffffffffffffff1673ffffffffffffffffffffffffffffffffffffffff1614156110f2576040517f08c379a000000000000000000000000000000000000000000000000000000000815260040180806020018281038252601f8152602001807f496e6578697374656e7420706172742075736564206f6e2070726f647563740081525060200191505060405180910390fd5b8180600101925050610fff565b600061110b87856112de565b9050600073ffffffffffffffffffffffffffffffffffffffff166001600083815260200190815260200160002060030160009054906101000a900473ffffffffffffffffffffffffffffffffffffffff1673ffffffffffffffffffffffffffffffffffffffff16146111e5576040517f08c379a00000000000000000000000000000000000000000000000000000000081526004018080602001828103825260178152602001807f50726f6475637420494420616c7265616479207573656400000000000000000081525060200191505060405180910390fd5b6111ed6114e5565b6111fa8a8a8a888b6113d7565b90508060016000848152602001908152602001600020600082015181600001908051906020019061122c929190611465565b506020820151816001019080519060200190611249929190611465565b506040820151816002019080519060200190611266929190611465565b5060608201518160030160006101000a81548173ffffffffffffffffffffffffffffffffffffffff021916908373ffffffffffffffffffffffffffffffffffffffff16021790555060808201518160040190805190602001906112ca92919061152a565b509050508195505050505050949350505050565b6000808260601b9050600084826040516020018083805190602001908083835b6020831061132157805182526020820191506020810190506020830392506112fe565b6001836020036101000a038019825116818451168082178552505050505050905001826bffffffffffffffffffffffff19166bffffffffffffffffffffffff1916815260140192505050604051602081830303815290604052805190602001209050809250505092915050565b611396611427565b60405180608001604052808681526020018581526020018481526020018373ffffffffffffffffffffffffffffffffffffffff168152509050949350505050565b6113df6114e5565b6040518060a001604052808781526020018681526020018581526020018473ffffffffffffffffffffffffffffffffffffffff16815260200183815250905095945050505050565b6040518060800160405280606081526020016060815260200160608152602001600073ffffffffffffffffffffffffffffffffffffffff1681525090565b828054600181600116156101000203166002900490600052602060002090601f016020900481019282601f106114a657805160ff19168380011785556114d4565b828001600101855582156114d4579182015b828111156114d35782518255916020019190600101906114b8565b5b5090506114e19190611577565b5090565b6040518060a00160405280606081526020016060815260200160608152602001600073ffffffffffffffffffffffffffffffffffffffff168152602001606081525090565b828054828255906000526020600020908101928215611566579160200282015b8281111561156557825182559160200191906001019061154a565b5b509050611573919061159c565b5090565b61159991905b8082111561159557600081600090555060010161157d565b5090565b90565b6115be91905b808211156115ba5760008160009055506001016115a2565b5090565b9056fe53706172655061727420776974682073616d652053657269616c204e756d62657220697320617661696c61626c6520696e2074686520696e76656e746f7279a265627a7a723158201ac12c8e493bbeecc7931354fc51d0c60448497679c90627ebeea6e14927dc8b64736f6c63430005100032",
  "source": "pragma solidity 0.5.16;\n\ncontract SupplyChainManagment {\n    struct SparePart {\n        string partName;\n        string partType;\n        string uniqueNumber;\n        address manufacturer;\n    }\n\n    struct Product{\n        string prdName;\n        string prdType;\n        string uniqueNumber;\n        address manufacturer;\n        bytes32[] parts;\n    }\n\n\n\n    mapping(bytes32 => SparePart) public spareParts;\n    mapping(bytes32 => Product) public products;\n\n    constructor() public {}\n\n\n    //add the sparePart to the Inventory\n    //SparePart is updated to the map aganist hash\n    //hash is generated using generateHash\n    function createSpare(string memory partName, string memory partType, string memory uniqueNumber) public  returns(bytes32){\n        address manufacturer = msg.sender;\n        \n        //generate the hash\n        bytes32  itemHash = generateHash(uniqueNumber, manufacturer);\n        \n        \n        //add SparePart\n        require(spareParts[itemHash].manufacturer == address(0), \"SparePart with same Serial Number is available in the inventory\");\n        SparePart memory item = createSparePart(partName, partType, uniqueNumber, manufacturer);\n        spareParts[itemHash] = item;\n        \n        \n        return itemHash;\n    }\n\n    // create the Product instance and add to the mapping\n    //check for the spare parts avaialable\n    function createProduct(string memory partName, string memory partType, string memory uniqueNumber, bytes32[] memory spare_parts) public returns (bytes32){\n        address manufacturer = msg.sender;\n        uint i;\n        uint upperBound = spare_parts.length;\n        for(i = 0;i < upperBound; i++){\n            require(spareParts[spare_parts[i]].manufacturer != address(0), \"Inexistent part used on product\");\n        }\n\n        //Create hash\n        bytes32 itemHash = generateHash(uniqueNumber, manufacturer);\n        \n        require(products[itemHash].manufacturer == address(0), \"Product ID already used\");\n        Product memory product = createProductObj(partName, partType, uniqueNumber, manufacturer, spare_parts);\n        products[itemHash] = product;\n\n        return itemHash;\n    }\n\n\n    //will return the parts- mapping of the product\n    function getParts(bytes32 product_hash) public view returns (bytes32[] memory){\n        require(products[product_hash].manufacturer != address(0), \"Product inexistent\");\n        return products[product_hash].parts;\n    }\n\n    \n    //create the object from the SparePart struct\n    function createSparePart(string memory partName, string memory partType, string memory uniqueNumber, address manufacturer) private pure returns(SparePart memory sparePart){\n        return SparePart(partName, partType, uniqueNumber, manufacturer);\n    }\n\n    //create the object from the Product struct\n    function createProductObj(string memory prdName, string memory prdType, string memory uniqueNumber, address manufacturer, bytes32[] memory spare_parts) private pure returns(Product memory prd){\n        return Product(prdName, prdType, uniqueNumber, manufacturer, spare_parts);\n    }\n\n    //will generate the keccak256 hash\n    //this will serve as the unique key for the item accros the blockchain\n    function generateHash(string memory uniqueNumber, address manufacturer) private pure returns(bytes32  hash){\n        bytes20  manB = bytes20(manufacturer);\n        bytes32  itemHash = keccak256(abi.encodePacked(uniqueNumber,manB));\n        return itemHash;\n    }\n}\n",
  "sourcePath": "/home/rajesh/Rajesh/eth_Pj/snoc_v2/contracts/SupplyChainManagment.sol",
  "compiler": {
    "name": "solc",
    "version": "0.5.16+commit.9c3226ce.Emscripten.clang"
  },
  "schemaVersion": "3.0.23",
  "updatedAt": "2020-05-31T09:18:15.514Z",
  "networkType": "ethereum",
  "devdoc": {
    "methods": {}
  },
  "userdoc": {
    "methods": {}
  }
}